{
  "_format": "hh-sol-artifact-1",
  "contractName": "BirthCertificateRegistry",
  "sourceName": "contracts/BirthCertificateRegistry.sol",
  "abi": [
    {
      "anonymous": false,
      "inputs": [
        {
          "indexed": true,
          "internalType": "bytes32",
          "name": "vcHash",
          "type": "bytes32"
        },
        {
          "indexed": true,
          "internalType": "address",
          "name": "issuer",
          "type": "address"
        },
        {
          "indexed": false,
          "internalType": "uint256",
          "name": "timestamp",
          "type": "uint256"
        }
      ],
      "name": "VCStored",
      "type": "event"
    },
    {
      "inputs": [
        {
          "internalType": "bytes32",
          "name": "",
          "type": "bytes32"
        }
      ],
      "name": "credentials",
      "outputs": [
        {
          "internalType": "string",
          "name": "credential",
          "type": "string"
        },
        {
          "internalType": "address",
          "name": "issuer",
          "type": "address"
        },
        {
          "internalType": "uint256",
          "name": "timestamp",
          "type": "uint256"
        }
      ],
      "stateMutability": "view",
      "type": "function"
    },
    {
      "inputs": [
        {
          "internalType": "bytes32",
          "name": "vcHash",
          "type": "bytes32"
        }
      ],
      "name": "getVC",
      "outputs": [
        {
          "internalType": "string",
          "name": "",
          "type": "string"
        },
        {
          "internalType": "address",
          "name": "",
          "type": "address"
        },
        {
          "internalType": "uint256",
          "name": "",
          "type": "uint256"
        }
      ],
      "stateMutability": "view",
      "type": "function"
    },
    {
      "inputs": [
        {
          "internalType": "string",
          "name": "_vc",
          "type": "string"
        }
      ],
      "name": "storeVC",
      "outputs": [
        {
          "internalType": "bytes32",
          "name": "",
          "type": "bytes32"
        }
      ],
      "stateMutability": "nonpayable",
      "type": "function"
    }
  ],
  "bytecode": "0x608060405234801561001057600080fd5b50610c52806100206000396000f3fe608060405234801561001057600080fd5b50600436106100415760003560e01c8063299d0348146100465780634f9d09b914610078578063936e153e146100a8575b600080fd5b610060600480360381019061005b91906104fb565b6100da565b60405161006f93929190610612565b60405180910390f35b610092600480360381019061008d9190610785565b6101ac565b60405161009f91906107dd565b60405180910390f35b6100c260048036038101906100bd91906104fb565b610335565b6040516100d193929190610612565b60405180910390f35b60006020528060005260406000206000915090508060000180546100fd90610827565b80601f016020809104026020016040519081016040528092919081815260200182805461012990610827565b80156101765780601f1061014b57610100808354040283529160200191610176565b820191906000526020600020905b81548152906001019060200180831161015957829003601f168201915b5050505050908060010160009054906101000a900473ffffffffffffffffffffffffffffffffffffffff16908060020154905083565b600080826040516020016101c09190610894565b60405160208183030381529060405280519060200120905060008060008381526020019081526020016000206002015414610230576040517f08c379a0000000000000000000000000000000000000000000000000000000008152600401610227906108f7565b60405180910390fd5b60405180606001604052808481526020013373ffffffffffffffffffffffffffffffffffffffff1681526020014281525060008083815260200190815260200160002060008201518160000190816102889190610ac3565b5060208201518160010160006101000a81548173ffffffffffffffffffffffffffffffffffffffff021916908373ffffffffffffffffffffffffffffffffffffffff160217905550604082015181600201559050503373ffffffffffffffffffffffffffffffffffffffff16817f59f196c6ae6821b5323d9357629afab35cd91ad40620fc0edb8380e9dc7209d0426040516103249190610b95565b60405180910390a380915050919050565b6060600080600080600086815260200190815260200160002060405180606001604052908160008201805461036990610827565b80601f016020809104026020016040519081016040528092919081815260200182805461039590610827565b80156103e25780601f106103b7576101008083540402835291602001916103e2565b820191906000526020600020905b8154815290600101906020018083116103c557829003601f168201915b505050505081526020016001820160009054906101000a900473ffffffffffffffffffffffffffffffffffffffff1673ffffffffffffffffffffffffffffffffffffffff1673ffffffffffffffffffffffffffffffffffffffff16815260200160028201548152505090506000816040015103610494576040517f08c379a000000000000000000000000000000000000000000000000000000000815260040161048b90610bfc565b60405180910390fd5b806000015181602001518260400151935093509350509193909250565b6000604051905090565b600080fd5b600080fd5b6000819050919050565b6104d8816104c5565b81146104e357600080fd5b50565b6000813590506104f5816104cf565b92915050565b600060208284031215610511576105106104bb565b5b600061051f848285016104e6565b91505092915050565b600081519050919050565b600082825260208201905092915050565b60005b83811015610562578082015181840152602081019050610547565b60008484015250505050565b6000601f19601f8301169050919050565b600061058a82610528565b6105948185610533565b93506105a4818560208601610544565b6105ad8161056e565b840191505092915050565b600073ffffffffffffffffffffffffffffffffffffffff82169050919050565b60006105e3826105b8565b9050919050565b6105f3816105d8565b82525050565b6000819050919050565b61060c816105f9565b82525050565b6000606082019050818103600083015261062c818661057f565b905061063b60208301856105ea565b6106486040830184610603565b949350505050565b600080fd5b600080fd5b7f4e487b7100000000000000000000000000000000000000000000000000000000600052604160045260246000fd5b6106928261056e565b810181811067ffffffffffffffff821117156106b1576106b061065a565b5b80604052505050565b60006106c46104b1565b90506106d08282610689565b919050565b600067ffffffffffffffff8211156106f0576106ef61065a565b5b6106f98261056e565b9050602081019050919050565b82818337600083830152505050565b6000610728610723846106d5565b6106ba565b90508281526020810184848401111561074457610743610655565b5b61074f848285610706565b509392505050565b600082601f83011261076c5761076b610650565b5b813561077c848260208601610715565b91505092915050565b60006020828403121561079b5761079a6104bb565b5b600082013567ffffffffffffffff8111156107b9576107b86104c0565b5b6107c584828501610757565b91505092915050565b6107d7816104c5565b82525050565b60006020820190506107f260008301846107ce565b92915050565b7f4e487b7100000000000000000000000000000000000000000000000000000000600052602260045260246000fd5b6000600282049050600182168061083f57607f821691505b602082108103610852576108516107f8565b5b50919050565b600081905092915050565b600061086e82610528565b6108788185610858565b9350610888818560208601610544565b80840191505092915050565b60006108a08284610863565b915081905092915050565b7f564320616c726561647920657869737473000000000000000000000000000000600082015250565b60006108e1601183610533565b91506108ec826108ab565b602082019050919050565b60006020820190508181036000830152610910816108d4565b9050919050565b60008190508160005260206000209050919050565b60006020601f8301049050919050565b600082821b905092915050565b6000600883026109797fffffffffffffffffffffffffffffffffffffffffffffffffffffffffffffffff8261093c565b610983868361093c565b95508019841693508086168417925050509392505050565b6000819050919050565b60006109c06109bb6109b6846105f9565b61099b565b6105f9565b9050919050565b6000819050919050565b6109da836109a5565b6109ee6109e6826109c7565b848454610949565b825550505050565b600090565b610a036109f6565b610a0e8184846109d1565b505050565b5b81811015610a3257610a276000826109fb565b600181019050610a14565b5050565b601f821115610a7757610a4881610917565b610a518461092c565b81016020851015610a60578190505b610a74610a6c8561092c565b830182610a13565b50505b505050565b600082821c905092915050565b6000610a9a60001984600802610a7c565b1980831691505092915050565b6000610ab38383610a89565b9150826002028217905092915050565b610acc82610528565b67ffffffffffffffff811115610ae557610ae461065a565b5b610aef8254610827565b610afa828285610a36565b600060209050601f831160018114610b2d5760008415610b1b578287015190505b610b258582610aa7565b865550610b8d565b601f198416610b3b86610917565b60005b82811015610b6357848901518255600182019150602085019450602081019050610b3e565b86831015610b805784890151610b7c601f891682610a89565b8355505b6001600288020188555050505b505050505050565b6000602082019050610baa6000830184610603565b92915050565b7f5643206e6f7420666f756e640000000000000000000000000000000000000000600082015250565b6000610be6600c83610533565b9150610bf182610bb0565b602082019050919050565b60006020820190508181036000830152610c1581610bd9565b905091905056fea2646970667358221220d130bae7fbc6d468553bbc8d77b15789c7b1ff634dbff366f92ab0c52cd3515c64736f6c63430008140033",
  "linkReferences": {},
  "deployedLinkReferences": {}
}